{
	"data": {
		"bytecode": {
			"linkReferences": {},
			"object": "608060405273694aa1769357215de4fac081bf1f309adc3253065f5f6101000a81548173ffffffffffffffffffffffffffffffffffffffff021916908373ffffffffffffffffffffffffffffffffffffffff1602179055503480156061575f5ffd5b506103368061006f5f395ff3fe608060405234801561000f575f5ffd5b5060043610610029575f3560e01c8063bea4dfb51461002d575b5f5ffd5b61003561004b565b604051610042919061010e565b60405180910390f35b5f5f5f5f9054906101000a900473ffffffffffffffffffffffffffffffffffffffff1673ffffffffffffffffffffffffffffffffffffffff1663feaf968c6040518163ffffffff1660e01b815260040160a060405180830381865afa1580156100b6573d5f5f3e3d5ffd5b505050506040513d601f19601f820116820180604052508101906100da91906101c7565b5050509150506305f5e100816100f09190610298565b91505090565b5f819050919050565b610108816100f6565b82525050565b5f6020820190506101215f8301846100ff565b92915050565b5f5ffd5b5f69ffffffffffffffffffff82169050919050565b6101498161012b565b8114610153575f5ffd5b50565b5f8151905061016481610140565b92915050565b610173816100f6565b811461017d575f5ffd5b50565b5f8151905061018e8161016a565b92915050565b5f819050919050565b6101a681610194565b81146101b0575f5ffd5b50565b5f815190506101c18161019d565b92915050565b5f5f5f5f5f60a086880312156101e0576101df610127565b5b5f6101ed88828901610156565b95505060206101fe88828901610180565b945050604061020f888289016101b3565b9350506060610220888289016101b3565b925050608061023188828901610156565b9150509295509295909350565b7f4e487b71000000000000000000000000000000000000000000000000000000005f52601260045260245ffd5b7f4e487b71000000000000000000000000000000000000000000000000000000005f52601160045260245ffd5b5f6102a2826100f6565b91506102ad836100f6565b9250826102bd576102bc61023e565b5b60015f0383147f8000000000000000000000000000000000000000000000000000000000000000831416156102f5576102f461026b565b5b82820590509291505056fea2646970667358221220b84dbbec6f2443b95b6cfab492d8e160095c38270bb9f71e06c4d173907bf14f64736f6c634300081e0033",
			"opcodes": "PUSH1 0x80 PUSH1 0x40 MSTORE PUSH20 0x694AA1769357215DE4FAC081BF1F309ADC325306 PUSH0 PUSH0 PUSH2 0x100 EXP DUP2 SLOAD DUP2 PUSH20 0xFFFFFFFFFFFFFFFFFFFFFFFFFFFFFFFFFFFFFFFF MUL NOT AND SWAP1 DUP4 PUSH20 0xFFFFFFFFFFFFFFFFFFFFFFFFFFFFFFFFFFFFFFFF AND MUL OR SWAP1 SSTORE POP CALLVALUE DUP1 ISZERO PUSH1 0x61 JUMPI PUSH0 PUSH0 REVERT JUMPDEST POP PUSH2 0x336 DUP1 PUSH2 0x6F PUSH0 CODECOPY PUSH0 RETURN INVALID PUSH1 0x80 PUSH1 0x40 MSTORE CALLVALUE DUP1 ISZERO PUSH2 0xF JUMPI PUSH0 PUSH0 REVERT JUMPDEST POP PUSH1 0x4 CALLDATASIZE LT PUSH2 0x29 JUMPI PUSH0 CALLDATALOAD PUSH1 0xE0 SHR DUP1 PUSH4 0xBEA4DFB5 EQ PUSH2 0x2D JUMPI JUMPDEST PUSH0 PUSH0 REVERT JUMPDEST PUSH2 0x35 PUSH2 0x4B JUMP JUMPDEST PUSH1 0x40 MLOAD PUSH2 0x42 SWAP2 SWAP1 PUSH2 0x10E JUMP JUMPDEST PUSH1 0x40 MLOAD DUP1 SWAP2 SUB SWAP1 RETURN JUMPDEST PUSH0 PUSH0 PUSH0 PUSH0 SWAP1 SLOAD SWAP1 PUSH2 0x100 EXP SWAP1 DIV PUSH20 0xFFFFFFFFFFFFFFFFFFFFFFFFFFFFFFFFFFFFFFFF AND PUSH20 0xFFFFFFFFFFFFFFFFFFFFFFFFFFFFFFFFFFFFFFFF AND PUSH4 0xFEAF968C PUSH1 0x40 MLOAD DUP2 PUSH4 0xFFFFFFFF AND PUSH1 0xE0 SHL DUP2 MSTORE PUSH1 0x4 ADD PUSH1 0xA0 PUSH1 0x40 MLOAD DUP1 DUP4 SUB DUP2 DUP7 GAS STATICCALL ISZERO DUP1 ISZERO PUSH2 0xB6 JUMPI RETURNDATASIZE PUSH0 PUSH0 RETURNDATACOPY RETURNDATASIZE PUSH0 REVERT JUMPDEST POP POP POP POP PUSH1 0x40 MLOAD RETURNDATASIZE PUSH1 0x1F NOT PUSH1 0x1F DUP3 ADD AND DUP3 ADD DUP1 PUSH1 0x40 MSTORE POP DUP2 ADD SWAP1 PUSH2 0xDA SWAP2 SWAP1 PUSH2 0x1C7 JUMP JUMPDEST POP POP POP SWAP2 POP POP PUSH4 0x5F5E100 DUP2 PUSH2 0xF0 SWAP2 SWAP1 PUSH2 0x298 JUMP JUMPDEST SWAP2 POP POP SWAP1 JUMP JUMPDEST PUSH0 DUP2 SWAP1 POP SWAP2 SWAP1 POP JUMP JUMPDEST PUSH2 0x108 DUP2 PUSH2 0xF6 JUMP JUMPDEST DUP3 MSTORE POP POP JUMP JUMPDEST PUSH0 PUSH1 0x20 DUP3 ADD SWAP1 POP PUSH2 0x121 PUSH0 DUP4 ADD DUP5 PUSH2 0xFF JUMP JUMPDEST SWAP3 SWAP2 POP POP JUMP JUMPDEST PUSH0 PUSH0 REVERT JUMPDEST PUSH0 PUSH10 0xFFFFFFFFFFFFFFFFFFFF DUP3 AND SWAP1 POP SWAP2 SWAP1 POP JUMP JUMPDEST PUSH2 0x149 DUP2 PUSH2 0x12B JUMP JUMPDEST DUP2 EQ PUSH2 0x153 JUMPI PUSH0 PUSH0 REVERT JUMPDEST POP JUMP JUMPDEST PUSH0 DUP2 MLOAD SWAP1 POP PUSH2 0x164 DUP2 PUSH2 0x140 JUMP JUMPDEST SWAP3 SWAP2 POP POP JUMP JUMPDEST PUSH2 0x173 DUP2 PUSH2 0xF6 JUMP JUMPDEST DUP2 EQ PUSH2 0x17D JUMPI PUSH0 PUSH0 REVERT JUMPDEST POP JUMP JUMPDEST PUSH0 DUP2 MLOAD SWAP1 POP PUSH2 0x18E DUP2 PUSH2 0x16A JUMP JUMPDEST SWAP3 SWAP2 POP POP JUMP JUMPDEST PUSH0 DUP2 SWAP1 POP SWAP2 SWAP1 POP JUMP JUMPDEST PUSH2 0x1A6 DUP2 PUSH2 0x194 JUMP JUMPDEST DUP2 EQ PUSH2 0x1B0 JUMPI PUSH0 PUSH0 REVERT JUMPDEST POP JUMP JUMPDEST PUSH0 DUP2 MLOAD SWAP1 POP PUSH2 0x1C1 DUP2 PUSH2 0x19D JUMP JUMPDEST SWAP3 SWAP2 POP POP JUMP JUMPDEST PUSH0 PUSH0 PUSH0 PUSH0 PUSH0 PUSH1 0xA0 DUP7 DUP9 SUB SLT ISZERO PUSH2 0x1E0 JUMPI PUSH2 0x1DF PUSH2 0x127 JUMP JUMPDEST JUMPDEST PUSH0 PUSH2 0x1ED DUP9 DUP3 DUP10 ADD PUSH2 0x156 JUMP JUMPDEST SWAP6 POP POP PUSH1 0x20 PUSH2 0x1FE DUP9 DUP3 DUP10 ADD PUSH2 0x180 JUMP JUMPDEST SWAP5 POP POP PUSH1 0x40 PUSH2 0x20F DUP9 DUP3 DUP10 ADD PUSH2 0x1B3 JUMP JUMPDEST SWAP4 POP POP PUSH1 0x60 PUSH2 0x220 DUP9 DUP3 DUP10 ADD PUSH2 0x1B3 JUMP JUMPDEST SWAP3 POP POP PUSH1 0x80 PUSH2 0x231 DUP9 DUP3 DUP10 ADD PUSH2 0x156 JUMP JUMPDEST SWAP2 POP POP SWAP3 SWAP6 POP SWAP3 SWAP6 SWAP1 SWAP4 POP JUMP JUMPDEST PUSH32 0x4E487B7100000000000000000000000000000000000000000000000000000000 PUSH0 MSTORE PUSH1 0x12 PUSH1 0x4 MSTORE PUSH1 0x24 PUSH0 REVERT JUMPDEST PUSH32 0x4E487B7100000000000000000000000000000000000000000000000000000000 PUSH0 MSTORE PUSH1 0x11 PUSH1 0x4 MSTORE PUSH1 0x24 PUSH0 REVERT JUMPDEST PUSH0 PUSH2 0x2A2 DUP3 PUSH2 0xF6 JUMP JUMPDEST SWAP2 POP PUSH2 0x2AD DUP4 PUSH2 0xF6 JUMP JUMPDEST SWAP3 POP DUP3 PUSH2 0x2BD JUMPI PUSH2 0x2BC PUSH2 0x23E JUMP JUMPDEST JUMPDEST PUSH1 0x1 PUSH0 SUB DUP4 EQ PUSH32 0x8000000000000000000000000000000000000000000000000000000000000000 DUP4 EQ AND ISZERO PUSH2 0x2F5 JUMPI PUSH2 0x2F4 PUSH2 0x26B JUMP JUMPDEST JUMPDEST DUP3 DUP3 SDIV SWAP1 POP SWAP3 SWAP2 POP POP JUMP INVALID LOG2 PUSH5 0x6970667358 0x22 SLT KECCAK256 0xB8 0x4D 0xBB EOFCREATE 0x6F 0x24 NUMBER 0xB9 JUMPDEST PUSH13 0xFAB492D8E160095C38270BB9F7 0x1E MOD 0xC4 DATALOADN 0x7390 PUSH28 0xF14F64736F6C634300081E0033000000000000000000000000000000 "
		},
		"gasEstimates": {
			"creation": {
				"codeDepositCost": "164400",
				"executionCost": "24471",
				"totalCost": "188871"
			},
			"external": {
				"getChainlinkDataFeedLatestAnswer()": "infinite"
			}
		},
		"methodIdentifiers": {
			"getChainlinkDataFeedLatestAnswer()": "bea4dfb5"
		}
	},
	"abi": [
		{
			"inputs": [],
			"name": "getChainlinkDataFeedLatestAnswer",
			"outputs": [
				{
					"internalType": "int256",
					"name": "",
					"type": "int256"
				}
			],
			"stateMutability": "view",
			"type": "function"
		}
	]
}